:020000040800F2
:1000000038150020510B0008ED020008EF0200082F
:10001000F3020008F7020008FB02000800000000DD
:10002000000000000000000000000000FF020008C7
:100030000103000800000000030300080503000896
:100040006B0B00086B0B00086B0B00086B0B0008B8
:100050006B0B00086B0B00086B0B00086B0B0008A8
:100060006B0B00086B0B00086B0B00086B0B000898
:100070006B0B00086B0B00086B0B00086B0B000888
:100080006B0B00086B0B00086B0B00086B0B000878
:10009000510600086B0B00086B0B00086B0B000887
:1000A0006B0B00086B0B00086B0B00086B0B000858
:1000B0006B0B0008610700086B0B00086B0B000856
:1000C0006B0B00086B0B00086B0B00086B0B000838
:1000D0006B0B0008C70A00086B0B00086B0B0008CD
:1000E0006B0B00086B0B00086B0B00086B0B000818
:1000F0006B0B00086B0B00086B0B00086B0B000808
:100100006B0B00086B0B00086B0B00086B0B0008F7
:100110006B0B00086B0B00086B0B00086B0B0008E7
:100120006B0B00086B0B00086B0B00086B0B0008D7
:100130006B0B00086B0B00086B0B00086B0B0008C7
:100140006B0B00086B0B00086B0B00086B0B0008B7
:100150006B0B00086B0B00086B0B00086B0B0008A7
:100160006B0B00086B0B00086B0B00086B0B000897
:100170006B0B00086B0B00086B0B00086B0B000887
:100180006B0B00086B0B000800F002F800F05CF845
:100190000AA090E8000C82448344AAF10107DA45E2
:1001A00001D100F051F8AFF2090EBAE80F0013F0D8
:1001B000010F18BFFB1A43F001031847F88900002C
:1001C000188A00000A444FF0000C10F8013B13F0AD
:1001D000070408BF10F8014B1D1108BF10F8015BA0
:1001E000641E05D010F8016B641E01F8016BF9D193
:1001F00013F0080F1EBF10F8014BAD1C0C1B09D1EA
:100200006D1E58BF01F801CBFAD505E014F8016B5B
:1002100001F8016B6D1EF9D59142D6D370470000ED
:100220000023002400250026103A28BF78C1FBD8FF
:10023000520728BF30C148BF0B6070471FB508F098
:100240001FFC1FBD10B510BD08F0E8FB1146FFF7FD
:10025000F5FF00F009F808F006FC03B4FFF7F2FF21
:1002600003BC00F0D1FB000008B500244FF4A060EF
:1002700000F08EFCA82000F045FB4FF4E13000F0C8
:10028000D0FB00F049F9532141F2873000F03CFAED
:10029000002006231A460521009000F05DF9012197
:1002A000104808F02AFA00210E4808F0BEF97F2114
:1002B0000C4808F0BAF905210A4808F0B6F90FE031
:1002C000601CC4B20A2000F07FFB142C08D1064841
:1002D000006808B9012000E00020034908600024FC
:1002E000EEE70000240A0020A4824242704700BFCB
:1002F000FEE700BFFEE700BFFEE700BFFEE7704776
:1003000070477047704700000CB5002001900090C6
:100310007648006840F480307449086000BF734834
:10032000006800F4003000900198401C0190009893
:1003300018B90198B0F5A04FF1D16C48006800F4ED
:10034000003010B10120009001E0002000900098E2
:10035000012846D165484030006840F0805063492C
:10036000403108606248006840F4404060490860DD
:100370005E48083000685D4908310860084600683A
:1003800040F4004008600846006840F4A05008604F
:100390005848091F0860081F006840F08070091F56
:1003A000086000BF5148006800F000700028F9D0D4
:1003B00040F20570504908604C480830006820F051
:1003C00003004A49083108600846006840F002000E
:1003D000086000BF45480830006800F00C0008289D
:1003E000F8D10CBD10B54548006840F47000434991
:1003F00008603E48006840F001003C490860002069
:100400003A4908310860394800683D490840374991
:1004100008603C48091D0860081F006820F480201F
:10042000091F0860002031490C310860FFF76CFF9C
:100430004FF0006031498039086010BD70B5002070
:100440000022022300240221284D08352D6805F0E2
:100450000C0020B1042806D0082834D107E02A4D2A
:100460002A4E356033E02A4D284E35602FE01F4D6F
:100470002D1D2D68C5F380541C4D2D1D2D6805F0D4
:100480003F0154B1224DB5FBF1F5184E361D3668CB
:10049000C6F3881605FB06F209E01B4DB5FBF1F526
:1004A000124E361D3668C6F3881605FB06F20F4D50
:1004B0002D1D2D68C5F301456D1C6B00B2FBF3F5D6
:1004C000124E356003E0104D104E356000BF00BF86
:1004D000064D08352D68C5F303150E4E705D0B4DA6
:1004E0002D68C540094E356070BD000000380240DF
:1004F0000070004008544007003C024088ED00E0D6
:10050000FFFFF6FE103000240024F400000000205D
:1005100000127A00040000201CB50121202000F008
:10052000CBFE4FF4C060009001208DF80400002045
:100530008DF8060003208DF8050001208DF80700D6
:100540006946044800F01AFC4FF4C061014800F00D
:1005500091FC1CBD001402402DE9F0418AB0044614
:100560000D4616461F46DDF840800121084600F082
:10057000A3FE0121480600F0E8FE4FF4C0500890A9
:1005800002208DF8240000208DF8260003208DF82D
:10059000250001208DF8270008A9584800F0EEFB3F
:1005A00009220B21554800F074FC09220C21534804
:1005B00000F06FFC00208DF81A008DF81B008DF8FC
:1005C0001C0001208DF81D0000208DF81E008DF804
:1005D0001F008DF816808DF817408DF818608DF883
:1005E0001950ADF8147005A9454801F0FCF9002038
:1005F0008DF80E008DF80F0001208DF810000020FE
:10060000ADF80400ADF80600ADF80800ADF80A003A
:10061000ADF80C0001208DF8110001A801F06DFA71
:1006200001220221364801F067FD14208DF80000F8
:1006300001208DF8010000208DF8020001208DF8C6
:100640000300684600F0A9FA00200AB0BDE8F08176
:1006500000B589B004AA0021294801F032FC0498B1
:1006600080B2ADF804009DF8190008B1012000E047
:1006700000208DF806009DF81A008DF807009DF8FF
:100680001A200DF11B0102A808F04DF901A91D481F
:1006900007F0F0FE09B000BDF0B585B007460C4686
:1006A0006FF07F450026E0788DF80A00E278211D82
:1006B0000DF10B0008F037F900208DF808002088B4
:1006C0000090A07808B9002000E002208DF8090011
:1006D00069460B4801F000FB064600BF314608485A
:1006E00001F092FB012802D0681E051EF6D115B953
:1006F000012005B0F0BD0020FBE700000000024033
:1007000000640040240A00207FB505460C46012104
:10071000022000F01AFE0295ADF804400020ADF86A
:100720000C00ADF8060001A91A4801F0E8FE01220C
:100730001146184802F084FB1D208DF800000020AF
:100740008DF8010003208DF8020001208DF80300D0
:10075000684600F022FA01210E4801F059FF7FBDE2
:1007600010B501210B4802F082FB28B10121094894
:1007700002F08EFB07F08AFD10BD0649243109689E
:100780000144044A2C32116070470248243000684A
:10079000704700000004004002469F2A04D10878F8
:1007A00008B15548704700BF00BF0020FAE770B598
:1007B00004460B4641F20365581BAB4275D02EDC54
:1007C00041F20145A3EB0500AB425FD017DC41F2DB
:1007D0001805A3EB0500AB4252D009DCB3F5805FEE
:1007E00048D06FF48050184488B3162878D145E07B
:1007F000B0F5F47F46D0B0F57A7F71D144E040F295
:10080000FF16851BB0424AD004DC012840D00228E4
:1008100066D13FE0012D44D0022D61D143E040F28A
:10082000FF36851BB0424ED012DCB0F5007F44D0BD
:1008300007DCA0F2FD1078B301283AD002284FD18E
:1008400039E0A0F2FD3048B3012849D139E013E086
:1008500040F2FF56A81BB5423CD006DC012D34D037
:10086000A5F2FE55002D3BD132E0012834D00228FC
:1008700036D133E0002137E0012135E0022133E0B9
:10088000032131E004212FE005212DE006212BE09A
:10089000072129E0082127E009E006E00FE009210F
:1008A00022E00A2120E00B211EE00C211CE00D219A
:1008B0001AE00E2118E00F2116E0102114E011219A
:1008C00012E0122110E013210EE014210CE007E0E9
:1008D000152109E0162107E0172105E0182103E0A2
:1008E00006481060002070BD00BF00201060044862
:1008F00000EBC100F7E70000300009060000020627
:10090000908A000810B504466FF0040000F092F9D8
:10091000E11704EB5171C1F3C701394A1170104658
:10092000007800EB4001C1EBC0104FF6FF7101EA07
:10093000C0003449088010BD0146314A12784A434C
:100940004FF0E0235A6100229A611A46126942F080
:1009500001021A6100BF4FF0E022106900F00102AD
:100960001AB100F48032002AF5D04FF0E02212696B
:1009700022F001024FF0E0231A6100229A617047D1
:100980000146204A12884A434FF0E0235A61002270
:100990009A611A46126942F001021A6100BF4FF0D3
:1009A000E022106900F001021AB100F48032002A3E
:1009B000F5D04FF0E022126922F001024FF0E0235F
:1009C0001A6100229A61704770B504464FF40770AF
:1009D00094FBF0F0C6B24FF4077094FBF0F100FB0B
:1009E000114085B205E04FF40770FFF7C9FF701E94
:1009F000C6B2002EF7D115B12846FFF7C1FF70BD72
:100A0000640C0020660C002000BF704700BF4C4AF9
:100A1000128802F04002002AF9D0C2B2484B9A80F4
:100A2000704710B588B004460121084600F044FC28
:100A30000121102000F09AFC07220921414800F012
:100A400028FA07220A213F4800F023FA4FF4C06039
:100A5000069002208DF81C008DF81D0000208DF8F6
:100A60001E0001208DF81F0006A9364800F086F907
:100A700002940020ADF80C00ADF80E00ADF81000A7
:100A8000ADF814000C20ADF8120002A92C4800F0BB
:100A9000CEFD01212A4800F052FE012240F22551EC
:100AA000274800F002FF25208DF8040003208DF870
:100AB00005008DF8060001208DF8070001A800F060
:100AC0006CF808B010BD10B540F225511C4800F07C
:100AD00027FF10B31A4800F061FEC4B21A4800881C
:100AE00000F40040C8B91848008800F4804060B1A4
:100AF0000A2C03D000201449088020E01248008806
:100B000040F400401049088019E00D2C06D10E4831
:100B1000008840F480400C49088010E00A480088B2
:100B2000C0F30D0009490C5407480088401C0649D1
:100B3000088008460088C72801DD0020088010BD15
:100B400000100140000002406C0C00204C0D002001
:100B50000948804709480047FEE7FEE7FEE7FEE751
:100B6000FEE7FEE7FEE7FEE7FEE7FEE7044805498D
:100B7000054A064B70470000E5030008890100089C
:100B8000380F0020381500203811002038110020BF
:100B900032490143324A1160704770B50021002389
:100BA0000F22C4781CB32E4C246804F4E064C4F50E
:100BB000E064C4F30721C1F10404E3B20A414478BC
:100BC0009C40E1B28478144021430C07210E254C4F
:100BD00005786155047804F01F050124AC400578C0
:100BE0006D11AD0005F1E025C5F8004109E004787C
:100BF00004F01F050124AC401B4D0678761145F822
:100C0000264070BD194A0A400243154B1B1F1A604B
:100C1000704739B1124A121D12680243104B1B1D56
:100C20001A6006E00E4A121D126882430C4B1B1D0F
:100C30001A607047042808D14FF0E021096941F09B
:100C400004014FF0E022116107E04FF0E021096953
:100C500021F004014FF0E022116170470000FA0515
:100C60000CED00E000E400E080E100E080FFFF1F09
:100C700010B504469848844208D10121084600F086
:100C800086FB0021012000F082FB76E0934884423D
:100C900008D10121022000F07AFB0021022000F09F
:100CA00076FB6AE08E48844208D10121042000F0DE
:100CB0006EFB0021042000F06AFB5EE0894884425C
:100CC00008D10121082000F062FB0021082000F07B
:100CD0005EFB52E08448844208D10121102000F0DC
:100CE00056FB0021102000F052FB46E07F48844272
:100CF00008D10121202000F04AFB0021202000F033
:100D000046FB3AE07A48844208D10121402000F0B5
:100D10003EFB0021402000F03AFB2EE07548844263
:100D200008D10121802000F032FB0021802000F05A
:100D30002EFB22E07048844208D10121801500F08A
:100D400026FB0021A01500F022FB16E06B48844230
:100D500008D10121401500F01AFB0021601500F0B8
:100D600016FB0AE06648844207D10121001500F015
:100D70000EFB0021201500F00AFB10BDF0B50A465D
:100D800000210023002400BF3DE0012505FA01F306
:100D9000156805EA03049C4234D105684F00032618
:100DA000BE40B543056015794E00B5400668354331
:100DB00005601579012D02D01579022D16D18568AF
:100DC0004F000326BE40B543856055794E00B540BF
:100DD000866835438560456801268E40B543456089
:100DE000456896798E40B6B235434560C5684F0078
:100DF0000326BE40B543C560D5794E00B540C668F0
:100E00003543C560491C1029BFD3F0BD4FF6FF71B3
:100E100001600021017141718171C171704708B594
:100E20004FF480320092009A0A430092009AC26105
:100E3000C161009AC261C2690092C269009208BD94
:100E40000246002013690B400BB1012000E0002096
:100E500070470146086980B2704702460020536916
:100E60000B400BB1012000E00020704701464869AB
:100E700080B2704701837047418370470AB1018394
:100E800000E0418370474161704742694A404261D6
:100E90007047F0B5002300244D07ED0E02FA05F36C
:100EA000CE1000F1200555F826504E07F70E0F26FC
:100EB000BE40B543CF1000F1200646F82750CE10B3
:100EC00000F1200555F8265045EA0304CE1000F144
:100ED000200545F82640F0BD000002400004024015
:100EE00000080240000C02400010024000140240C2
:100EF00000180240001C0240002002400024024072
:100F000000280240F948006840F00100F7490860F5
:100F10000020F64908310860F4480068F4490840A8
:100F2000F2490860F348091D0860F348EF4984312D
:100F30000860F0481038091D0860EC48006820F48B
:100F40008020EA4908600020E8490C310860E74940
:100F50008C31086070470021E44A921C11701146E0
:100F60000870704710B501460022002300204A1186
:100F7000012A02D1DD4C236808E0022A03D1DB4CB0
:100F80007034236802E0D94C7434236801F01F02E6
:100F9000012494401C400CB1012000E0002010BD51
:100FA00038B5002000900024002500BF3120FFF755
:100FB000D9FF05460098401C00900098B0F5A04F5E
:100FC00001D0002DF2D03120FFF7CCFF08B1012471
:100FD00000E00024204638BD01460020C34A1068C6
:100FE00020F0F80040EAC10010607047C349086073
:100FF00070470021BD4A703211701170012802D073
:1010000004280AD104E00121B84A7032117005E0C9
:101010000521B64A7032117000E000BF00BF704772
:10102000B7490860704770B5049C41EA82150126F3
:10103000C6EB530645EA0645054345EA0465AB4E53
:10104000361D356070BDAD4908667047820142EAC1
:101050000172A64B84331A607047A84988667047AE
:1010600010B5830143EA016343EA02739F4C88345D
:10107000236010BDA14908677047A049C864704744
:1010800002460020994B0833186820F0EC6042EAD1
:1010900001031843954B083318607047024600203F
:1010A000924B0833186820F0784042EA0103184355
:1010B0008E4B083318607047014600208B4A083277
:1010C000106820F00300084310607047874808301C
:1010D000006800F00C00704701460020834A083287
:1010E000106820F0F00008431060704701460020AF
:1010F0007E4A0832106820F4E050084310607047C0
:1011000001460020794A0832106820F4604040EA25
:10111000C10010607047F0B50021002200240225B4
:1011200000260223714F08373F6807F00C0121B1F8
:10113000042905D0082937D105E0724F076036E051
:10114000714F076033E0694F3F1D3F68C7F380561A
:10115000664F3F1D3F6807F03F036EB16A4FB7FB14
:10116000F3F7DFF888C10CF1040CDCF800C0CCF315
:10117000881C07FB0CF40CE0624FB7FBF3F7DFF8B9
:101180006CC10CF1040CDCF800C0CCF3881C07FB2C
:101190000CF4564F3F1D3F68C7F301477F1C7D008D
:1011A000B4FBF5F7076002E0564F076000BF00BFD1
:1011B0004E4F08373F6807F0F0010909534F7A5C3A
:1011C0000768D7404760494F08373F6807F4E05148
:1011D000890A4E4F7A5C4768D7408760434F08378B
:1011E0003F6807F46041490B484F7A5C4768D74035
:1011F000C760F0BD002100F44072B2F5407F0AD113
:101200003A4A0832116821F4F811414A0240114368
:10121000364A08321160354A70321268C0F30B0347
:101220001A43324B70331A607047354944390860AD
:101230007047334940390860704736490860704745
:1012400001460020294A8C32106820F01F004A1EF7
:101250001043264A8C321060704701460020234A12
:101260008C32106820F4F8504A1E40EA02201F4ACF
:101270008C3210607047014600201C4A8C32106886
:1012800020F4401008431060704701460020174AC0
:101290008C32106820F4400008431060704701460B
:1012A0000020124A8C32106820F44030084310604D
:1012B000704719490860704739B10C4A30321268DA
:1012C00002430A4B30331A6006E0084A3032126893
:1012D0008243064B30331A607047F9B1034A343207
:1012E00012680243014B34331A601CE0003802409C
:1012F000FFFFF6EA103000240030002000004742D3
:10130000800E47420024F40000127A006E0C002088
:10131000FFFCFF0F5C014742E01147428F4A126811
:1013200082438E4B1A60704739B18C4A121D126885
:1013300002438A4B1B1D1A6006E0884A121D126880
:101340008243864B1B1D1A60704739B1834A0C32A9
:1013500012680243814B0C331A6006E07F4A0C325C
:10136000126882437D4B0C331A60704739B17B4A57
:10137000103212680243794B10331A6006E0774A44
:10138000103212688243754B10331A60704739B1BE
:10139000724A243A12680243704B243B1A6006E0FA
:1013A0006E4A243A126882436C4B243B1A607047A1
:1013B00039B16A4A203A12680243684B203B1A60EE
:1013C00006E0664A203A12688243644B203B1A606A
:1013D000704739B1614A1C3A126802435F4B1C3BAB
:1013E0001A6006E05D4A1C3A126882435B4B1C3B64
:1013F0001A60704739B1594A143A12680243574B80
:10140000143B1A6006E0554A143A12688243534B63
:10141000143B1A60704739B1504A103A12680243BF
:101420004E4B103B1A6006E04C4A103A1268824359
:101430004A4B103B1A60704739B1484A1C32126857
:101440000243464B1C331A6006E0444A1C321268C1
:101450008243424B1C331A60704739B13F4A2032F5
:10146000126802433D4B20331A6006E03B4A2032AB
:1014700012688243394B20331A60704739B1374ABA
:10148000243212680243354B24331A6006E0334A93
:10149000243212688243314B24331A60704739B1C9
:1014A0002E4A2C32126802432C4B2C331A6006E071
:1014B0002A4A2C3212688243284B2C331A60704718
:1014C00039B1264A303212680243244B30331A6055
:1014D00006E0224A303212688243204B30331A60D1
:1014E0007047012808D11D493C31096841F00801C5
:1014F0001A4A3C32116007E018493C31096821F072
:101500000801164A3C321160704739B1134A273A34
:1015100012780243114B273B1A7006E00F4A273A14
:10152000127882430D4B273B1A7070470B484030AE
:10153000006840F0807009494031086070470146FA
:101540000020064A283A12680A400AB1012000E049
:10155000002070470149263908707047343802402E
:1015600010B50446FA48844208D101211020FFF743
:1015700052FF00211020FFF74EFF57E0F54884424C
:1015800009D101214804FFF735FF00214FF4003055
:10159000FFF730FF4AE0F048844209D10121880476
:1015A000FFF728FF00214FF48020FFF723FF3DE0E5
:1015B000EA48844209D10121C804FFF71BFF00213A
:1015C0004FF40020FFF716FF30E0E548844209D1D0
:1015D00001210805FFF70EFF00214FF48010FFF7EF
:1015E00009FF23E0DF48844208D101212020FFF7D2
:1015F00012FF00212020FFF70EFF17E0DA48844297
:1016000009D101218807FFF7F5FE00214FF0804046
:10161000FFF7F0FE0AE0D548844207D101214005DA
:10162000FFF7E8FE00216005FFF7E4FE10BD2DE99D
:10163000FF4705460E460024A14600BFA046B089DC
:1016400000B100BF2C8A24F44054F08804432C825B
:10165000AC8941F20C608443B088318908437189B8
:1016600008430443AC81AC8A24F44074B089044339
:10167000AC826846FFF74FFDB548854202D0B948B5
:10168000854202D1DDF80C9001E0DDF80890A889D0
:1016900000F4004040B109EBC90000EB09103168CB
:1016A0004900B0FBF1F707E009EBC90000EB0910B6
:1016B00031688900B0FBF1F76420B7FBF0F004015A
:1016C0002009642101FB1078A88900F4004040B192
:1016D000322000EBC800B0FBF1F000F0070004433B
:1016E00008E0322000EB08106421B0FBF1F000F0BC
:1016F0000F0004432C81BDE8FF874FF416510160B1
:1017000000218180C18001810C21418100218181E2
:10171000704710B502460020108A20F470600B88D4
:101720004C8823438C882343CC882343184310825E
:1017300010BD0021018041808180C180704721B1AE
:10174000828942F40052828104E082894DF6FF735F
:101750001A4082817047028B02F47F420283028B1F
:101760000A430283704721B1828942F40042828198
:1017700003E08289C2F30E028281704721B1828A1E
:1017800042F40062828204E0828A4FF2FF731A40C0
:1017900082827047C1F308028280704701468888C0
:1017A000C0F308007047028A4FF6F0731A400282B5
:1017B000028A0A430282704721B1828942F0020202
:1017C000828104E082894FF6FD731A40828170475E
:1017D00082894FF2FF731A40828182890A43828193
:1017E0007047028A4FF6DF731A400282028A0A4368
:1017F0000282704721B1028A42F48042028204E0F0
:10180000028A4BF6FF731A4002827047818941F0C9
:1018100001018181704721B1828A42F008028282EF
:1018200004E0828A4FF6F7731A4082827047028B77
:10183000D2B20283028B42EA01220283704721B1B5
:10184000828A42F02002828204E0828A4FF6DF73AD
:101850001A408282704721B1828A42F0100282824D
:1018600004E0828A4FF6EF731A4082827047828AC0
:101870004FF6FB731A408282828A0A438282704743
:1018800021B1828A42F00202828204E0828A4FF60B
:10189000FD731A40828270471AB1838A0B43838298
:1018A00002E0838A8B4383827047F0B503460024AD
:1018B00000260025002040F66A17B94200D100BF7B
:1018C0001846C1F3421401F01F06012707FA06F576
:1018D000012C01D10C3004E0022C01D1103000E0C9
:1018E00014301AB107682F43076002E00768AF435E
:1018F0000760F0BD02460020B1F5007F00D100BFB7
:1019000013880B400BB1012000E00020704701F468
:101910000072B2F5007F00D100BFCA430280704759
:1019200070B50246002400230025002040F66A1608
:10193000B14200D100BFC1F3421501F01F030126DF
:1019400006FA03F3012D13D19689334017E0000006
:10195000001001400044004000480040004C00409E
:10196000005000400014014000780040007C00401E
:10197000022D02D1168A334001E0968A33400C12C0
:10198000012606FA04F41688344013B10CB1012084
:1019900000E0002070BD10B50022002340F66A145C
:1019A000A14200D100BF0A1201249440A3B2DC433B
:1019B000048010BD10B50446FE48844209D10121BF
:1019C0004806FFF717FD00214FF00070FFF712FDEA
:1019D00008E001218806FFF70DFD00214FF080602F
:1019E000FFF708FD10BD30B5024600200023146843
:1019F00024F002041460146844F00104146000E050
:101A00005B1C546804F001041CB94FF6FF74A34238
:101A1000F6D1546804F001040CB900206CE08C7914
:101A2000012C04D1146844F08004146003E01468AD
:101A300024F080041460CC79012C04D1146844F0A3
:101A40004004146003E0146824F0400414600C7A2D
:101A5000012C04D1146844F02004146003E01468DD
:101A600024F0200414604C7A012C04D1146844F052
:101A70001004146003E0146824F0100414608C7ADD
:101A8000012C04D1146844F00804146003E01468C5
:101A900024F008041460CC7A012C04D1146844F0BA
:101AA0000404146003E0146824F0040414608C78C7
:101AB000A407CD7844EA05640D7944EA05444D79DC
:101AC00044EA05540D886D1E2C43D461146824F03B
:101AD00001041460002300E05B1C546804F001045E
:101AE0001CB14FF6FF74A342F6D1546804F0010410
:101AF0000CB1002000E0012030BD10B50021837A38
:101B0000012202FA03F1AC4A126842F00102AA4B28
:101B10001A60A94A1C3212688A43A74B1C331A6008
:101B2000027BCAB9A44A0C3212688A43A24B0C3316
:101B30001A604288C38842EA03439F4A4032847A4B
:101B400042F834300288838842EA03439A4A40329A
:101B5000847A02EBC4025360027B012A19D1964AAF
:101B60000C3212680A43944B0C331A604288038883
:101B700042EA0343904A4032847A42F83430C288C1
:101B8000838842EA03438C4A4032847A02EBC402DF
:101B90005360C27A3AB9884A121D12688A43864B4A
:101BA0001B1D1A6006E0844A121D12680A43824B0C
:101BB0001B1D1A60028932B97F4A143212688A43A7
:101BC0007D4B14331A600289012A06D17A4A1432F5
:101BD00012680A43784B14331A60427B012A06D1FB
:101BE000754A1C3212680A43734B1C331A60724ADE
:101BF000126822F00102704B1A6010BD0021817141
:101C0000C171017241728172C1728170C170032110
:101C10000171022141710121018070476649096803
:101C200041F00101644A11601146096843F60E72E1
:101C30009143614A11601146096841EA002111602F
:101C40001146096821F001011160704721B1026855
:101C500042F48032026003E0026822F480320260C3
:101C60007047E1B1026842F0800202604FF4C27234
:101C7000125842F480734FF4C27213504FF4CA7278
:101C8000125842F480734FF4CA7213504FF4D27258
:101C9000125842F480734FF4D27213501BE0026862
:101CA00022F0800202604FF4C272125822F4807354
:101CB0004FF4C27213504FF4CA72125822F4807358
:101CC0004FF4CA7213504FF4D272125822F4807338
:101CD0004FF4D2721350704710B50246002093683B
:101CE00003F08063B3F1806F00D110E0936803F0DC
:101CF0000063B3F1006F01D1012008E0936803F0A5
:101D00008053B3F1805F01D1022000E00420042859
:101D100079D002F5C07303EB00131B6803F00104D4
:101D200002F5C07303EB00131C600B7A7BB94B7A8E
:101D30000C8843EA445302F5C07404EB0014246891
:101D4000234302F5C07404EB0014236010E00B7A07
:101D50004C6843EAC4034C7A234302F5C07404EB95
:101D600000142468234302F5C07404EB00142360BC
:101D70008B7A03F00F038B7202F5C07303EB001331
:101D80005B6823F00F0402F5C07303EB00135C6083
:101D900002F5C07303EB00135B688C7A234302F5F2
:101DA000C07404EB001463608B7B1C064B7B44EA1D
:101DB000034403E000640040006600400B7B44EAFB
:101DC0000323CC7A234302F5C07404EB0014A36010
:101DD0008B7C1C064B7C44EA03440B7C44EA0323C3
:101DE000CC7B234302F5C07404EB0014E36002F5DE
:101DF000C07303EB00131B6843F0010402F5C073CA
:101E000003EB00131C6010BD10B50246002321B186
:101E1000012907D002290FD109E09068F94C00EAA6
:101E200004030BE09068F84C00EA040306E09068B5
:101E3000F64C00EA040301E0002300BF00BFF44CAD
:101E4000181BA34216D007DC83B16FF080601844E2
:101E500070B1022818D111E0B0F5007F10D0ED4C20
:101E6000204448B1B0F5003F0ED10BE002230DE055
:101E700000230BE0002309E0002307E0012305E035
:101E8000012303E0012301E0002300BF00BFD8B21B
:101E900010BD21B1012907D002290FD109E08268C4
:101EA00042F0800282600AE0826842F4004282606E
:101EB00005E0826842F40002826000E000BF00BFDB
:101EC000704710B500F5D87303EB01131B6803F0DE
:101ED00004031372137A53B900F5D87303EB01139B
:101EE0001B6840F2FF7404EA5353136009E000F5E5
:101EF000D87303EB01131B686FF0604404EAD3034B
:101F0000536000F5D87303EB01131B6803F0020361
:101F1000537200F5D87303EB01135B6803F00F03F2
:101F2000937200F5D87303EB01135B681B0AD3743B
:101F300000F5D87303EB01139B68D37200F5D873D7
:101F400003EB01139B681C0A147300F5D87303EBB1
:101F500001139B681C0C547300F5D87303EB011339
:101F60009B681B0E937300F5D87303EB0113DB68BA
:101F7000D37300F5D87303EB0113DB681C0A1474E8
:101F800000F5D87303EB0113DB681C0C547400F5E7
:101F9000D87303EB0113DB681B0E937421B9C3687C
:101FA00043F02003C36003E0036943F020030361AF
:101FB00010BD21B9C26842F02002C26003E002698C
:101FC00042F02002026170470246002019B9D3682E
:101FD00003F0030006E0012903D1136903F00300B5
:101FE00000E00020704710B502460B4600204FF677
:101FF000FF71BBB9146824F0020444F001041460BA
:1020000000E0491E546804F00304012C01D00029AB
:10201000F7D1546804F00304012C01D0002032E011
:10202000012030E0012B13D1146824F00304146064
:1020300000E0491E546804F003040CB10029F8D1F3
:10204000546804F003040CB100201CE001201AE0E5
:10205000022B17D1146824F0010444F00204146028
:1020600000E0491E546804F00304022C01D000294A
:10207000F7D1546804F00304022C01D0002002E0E0
:10208000012000E0002010BD014600200A6822F077
:10209000010242F002020A604A6802F00302022AC8
:1020A00000D10120704701464FF6FF7200200B68F7
:1020B00023F002030B6000E0521E4B6803F00203A2
:1020C000022B01D1002AF7D14B6803F00203022B47
:1020D00000D001207047014600208A6902F070009C
:1020E0007047014600208A69100E704701460020A3
:1020F0008A69C2F3074070471AB143690B434361D1
:1021000002E043698B434361704710B502460020EB
:1021100001F4700343B19369C1F3130423400BB17D
:1021200001202DE000202BE001F0807343B15368C3
:10213000C1F3130423400BB1012021E000201FE074
:1021400001F0006343B19368C1F3130423400BB162
:10215000012015E0002013E001F0007343B1D368C3
:10216000C1F3130423400BB1012009E0002007E074
:102170001369C1F3130423400BB1012000E00020D8
:1021800010BD0022244B994202D10023836111E04B
:10219000C1F3130201F000730BB1C2600AE001F059
:1021A00080630BB1026105E001F000630BB1826056
:1021B00000E0426070470246002002EA01030BB1D2
:1021C000012000E00020704770B504460D4600264F
:1021D00060692840002872D0B5F5807F69D01DDC89
:1021E000082D42D006DC012D2DD0022D31D0042D3A
:1021F0007FD134E0102D3ED0202D42D0402D78D11B
:1022000045E0000003000004000300080000031084
:10221000000100080001FFF77000F030B5F5004F35
:1022200061D009DCB5F5007F4AD0B5F5806F4DD09F
:10223000B5F5006F5DD150E0B5F5803F2DD0B5F517
:10224000003F56D12FE0A0685549FFF7B4FF06467E
:1022500051E0E0680321FFF7AEFF06464BE0E0687F
:102260000821FFF7A8FF064645E0E0681021FFF7C8
:10227000A2FF06463FE020690321FFF79CFF0646C8
:1022800039E020690821FFF796FF064633E0206910
:102290001021FFF790FF06462DE060680821FFF748
:1022A0008AFF064627E060681021FFF784FF064694
:1022B00021E0A0690121FFF77EFF06461BE01BE03D
:1022C000A0690221FFF777FF064614E0A069042108
:1022D000FFF771FF06460EE00BE0A0697021FFF7E3
:1022E0006AFF064607E060680421FFF764FF0646C0
:1022F00001E0002600BF00E00026304670BDB1F5C9
:10230000007F3AD00FDC202928D006DC01291CD020
:1023100004291DD0082940D11DE0402921D0B1F564
:10232000807F3AD126E0B1F5004F31D006DCB1F51F
:10233000806F25D0B1F5006F2FD124E0B1F5803F3B
:1023400012D0B1F5003F28D111E0154A826025E096
:102350000822C26022E01022C2601FE0082202614F
:102360001CE01022026119E00822426016E01022EF
:10237000426013E00422426010E0042242600DE05B
:10238000042242600AE0002282610422426005E0E9
:10239000002282610422426000E000BF00BF70475B
:1023A0000101010010B50446FE48844208D1012114
:1023B0000846FFF730F800210120FFF72CF89DE0D8
:1023C000B4F1804F08D101210846FFF713F800212E
:1023D0000120FFF70FF891E0F348844208D1012172
:1023E0000220FFF707F800210220FFF703F885E03D
:1023F000EE48844208D101210420FEF7FBFF0021B2
:102400000420FEF7F7FF79E0E948844208D1012172
:102410000820FEF7EFFF00210820FEF7EBFF6DE03C
:10242000E448844208D101211020FEF7E3FF002197
:102430001020FEF7DFFF61E0DF48844208D1012170
:102440002020FEF7D7FF00212020FEF7D3FF55E024
:10245000DA48844208D101210220FEF7DCFF002186
:102460000220FEF7D8FF49E0D548844209D1012176
:102470000804FEF7D0FF00214FF48030FEF7CBFFB9
:102480003CE0D048844209D101214804FEF7C3FF53
:1024900000214FF40030FEF7BEFF2FE0CA4884420F
:1024A00009D101218804FEF7B6FF00214FF48020F6
:1024B000FEF7B1FF22E0C548844208D10121402047
:1024C000FEF798FF00214020FEF794FF16E0C04879
:1024D000844208D101218020FEF78CFF002180205A
:1024E000FEF788FF0AE0BB48844207D1012180152E
:1024F000FEF780FF0021A015FEF77CFF10BD002233
:102500000288A84B98420ED0AC4B98420BD0B0F149
:10251000804F08D0A44B984205D0A44B984202D0DB
:10252000A34B984204D14FF68F731A404B881A433D
:10253000A04B984207D0A04B984204D04FF6FF43DF
:102540001A400B891A4302804B68C3620B880385CB
:10255000944B984202D0994B984201D18B7A0386D2
:102560000123838270474FF0FF31416000210180D9
:1025700001814180817270470185828270470A46DD
:10258000002101884FF68F73194011430180704775
:1025900041627047C16270470146486A7047014610
:1025A000088D704721B1028842F00202028004E0E7
:1025B00002884FF6FD731A400280704721B10288ED
:1025C00042F00402028004E002884FF6FB731A40D6
:1025D0000280704721B1028842F08002028004E04C
:1025E00002884FF67F731A400280704702884FF6C8
:1025F000F7731A40028002880A43028070470288FB
:102600004FF6FF431A40028002880A430280704757
:1026100021B1028842F00102028004E002884FF6F4
:10262000FE731A400280704770B500240022002318
:10263000058C4FF6FE7635400584028C8388048B2A
:102640004FF68F752C40B51E2C400D882C43751EFF
:102650002A408D892A434D882A43524DA84202D0F0
:10266000564DA84213D14FF6F7752A40CD892A431B
:102670004FF6FB752A408D882A434FF6FF652B40A5
:102680004FF6FF552B400D8A2B434D8A2B438380F9
:1026900004838D684563028470BD70B500240022F8
:1026A0000023058C4FF6EF7635400584028C838835
:1026B000048B48F6FF752C404FF6FF452C400D88E3
:1026C0004FF6FF7606EA05252C434FF6DF752A40C4
:1026D0008D8906EA05152A434D8806EA05152A4321
:1026E000304DA84202D0354DA8421DD14FF67F751E
:1026F0002A40CD894FF6FF7606EA05152A434FF6A4
:10270000BF752A408D8806EA05152A434FF6FF3526
:102710002B404FF2FF752B400D8A06EA85052B43AF
:102720004D8A06EA85052B43838004838D68856383
:10273000028470BD70B5002400220023058C4FF682
:10274000FF6635400584028C8388848B4FF68F7535
:102750002C404FF6FC752C400D882C434FF6FF554E
:102760002A408D894FF6FF7606EA05252A434D88D3
:1027700006EA05252A430B4DA84202D00F4DA84278
:1027800038D14FF2FF752A40CD894FF6FF7606EA21
:1027900005252A434FF6FF352A408D8806EA052590
:1027A0002A4319E0000001400004004000080040F6
:1027B000000C0040001000400014004000040140E4
:1027C0000040014000440140004801400018004022
:1027D000001C0040002000404EF6FF752B404DF6D7
:1027E000FF752B400D8A06EA05152B434D8A06EA34
:1027F00005152B43838084838D68C563028470BD77
:1028000070B5002200230024058C4EF6FF7635407B
:102810000584038C8488828B48F6FF752A404FF626
:10282000FF452A400D884FF6FF7606EA05252A4324
:102830004DF6FF752B408D8906EA05352B434D88F3
:1028400006EA05352B43FE4DA84202D0FD4DA842B5
:1028500008D14BF6FF752C400D8A4FF6FF7606EA3D
:1028600085152C43848082838D680564038470BD44
:10287000002101804180818081608181C18101824C
:102880004182704770B50346002000241846183076
:1028900001258D40ACB21D8CA5431D8409B10829CA
:1028A0000AD100EB610005684FF68F763540056070
:1028B0000568154305600FE00D1FC5F34E0528445C
:1028C000056848F6FF763540056005684FF6FF76E7
:1028D00006EA02263543056070BD41637047816397
:1028E0007047C1637047016470470A460021018B3D
:1028F0004FF68F7319401143018370470A46002138
:10290000018B48F6FF7319404FF6FF7303EA022369
:102910001943018370470A460021818B4FF68F735C
:1029200019401143818370470A460021818B48F684
:10293000FF7319404FF6FF7303EA022319438183A3
:1029400070470A460021018B4FF6F7731940114377
:10295000018370470A460021018B4FF2FF73194033
:102960004FF6FF7303EA02231943018370470A46B7
:102970000021818B4FF6F773194011438183704713
:102980000A460021818B4FF2FF7319404FF6FF7307
:1029900003EA02231943818370470A460021018B11
:1029A0004FF6FB7319401143018370470A4600211B
:1029B000018B4FF6FF3319404FF6FF7303EA0223F2
:1029C0001943018370470A460021818B4FF6FB7340
:1029D00019401143818370470A460021818B4FF6CD
:1029E000FF3319404FF6FF7303EA02231943818333
:1029F00070470A460021018B4FF67F73194011433F
:102A0000018370470A460021018BC1F30E014FF686
:102A1000FF7303EA02231943018370470A4600212A
:102A2000818B4FF67F7319401143818370470A46AB
:102A30000021818BC1F30E014FF6FF7303EA0223DD
:102A40001943818370470A460021018C4FF6FD73BC
:102A500019401143018470470A460021018C4FF64A
:102A6000F77319401143018470470A460021018C15
:102A70004FF6DF7319404FF6FF7303EA0213194351
:102A8000018470470A460021018C4FF67F7319407C
:102A90004FF6FF7303EA02131943018470470A4695
:102AA0000021018C4FF6FF5319404FF6FF7303EAE4
:102AB00002231943018470470A460021018C4FF21A
:102AC000FF7319404FF6FF7303EA02231943018491
:102AD00070470A460021018C4DF6FF7319404FF6EE
:102AE000FF7303EA023319430184704730B50023B2
:102AF00001248C40A3B2048C9C430484048C02FA0D
:102B000001F5ADB22C43048430BD30B5002304245C
:102B10008C40A3B2048C9C430484048C02FA01F51B
:102B2000ADB22C43048430BD828B4FF2FF331A4088
:102B30008283828B4FF6FF7303EA01231A43828359
:102B40007047F0B50C461546002100220026078C80
:102B50004EF6FF7C07EA0C070784818B028C4FF648
:102B6000FF7707EA043640F6FF4739404FF6FF7714
:102B700007EA052739434FF6FF7707EA033739435A
:102B800045F6FF773A4046F480573A438183028402
:102B9000F0BD828B4FF6F3731A408283828B0A4317
:102BA00082837047F0B50C461546002100220026AE
:102BB000078C4FF6FF6C07EA0C070784818B028CA9
:102BC0004FF6FF7707EA04264FF60C7739404FF6A9
:102BD000FF7707EA03172F4339434FF2FF573A4075
:102BE00046F480773A4381830284F0BD028B4FF232
:102BF000FF331A400283028B4FF6FF7303EA01236F
:102C00001A4302837047F0B50C4615460021002296
:102C10000026078C4FF6EF7C07EA0C070784018B30
:102C2000028C4FF6FF7707EA041640F6FF4739405B
:102C30004FF6FF7707EA033739434FF6FF7703E094
:102C4000000001400004014007EA052739434FF620
:102C50005F773A4046F010073A4301830284F0BDA3
:102C6000028B4FF6F3731A400283028B0A430283EE
:102C70007047F0B50C46154600210022068C4FF631
:102C8000FE773E400684018B028C4FF60C76314075
:102C90007E1C06EA03162E4331434FF6F57632408A
:102CA00044F00106324301830284F0BD70B505464D
:102CB0000C46208850B92389A28861882846FFF7EE
:102CC000D8FFE1882846FFF7CBFF25E020880428BD
:102CD0000AD12389A28861882846FFF794FFE188FA
:102CE0002846FFF783FF17E0208808280AD12389A8
:102CF000A28861882846FFF755FFE1882846FFF73C
:102D000048FF09E02389A28861882846FFF719FF58
:102D1000E1882846FFF708FF70BD0021018041804F
:102D2000012181800021C180018170472DE9F0419E
:102D300005460C4600260127608808B9022600E0F7
:102D40000026A088012801D1022700E00127208861
:102D5000A0B92389A28861882846FFF78AFFE18805
:102D60002846FFF77DFF23893A4631462846FFF77C
:102D70004AFFE1882846FFF739FF13E02389A2883C
:102D800061882846FFF73FFFE1882846FFF72EFFBE
:102D900023893A4631462846FFF76BFFE1882846EB
:102DA000FFF75EFFBDE8F0810146486B70470146C2
:102DB000886B70470146C86B70470146086C7047C6
:102DC0000A884B881A438B881A43CB881A430B898D
:102DD0001A434B891A438B891A43A0F84420704741
:102DE0000021018041808180C180018141818181F8
:102DF000704731B1B0F8442042F40042A0F84420BA
:102E000005E0B0F84420C2F30E02A0F84420704759
:102E100021B1828842F00402828004E082884FF669
:102E2000FB731A408280704721B1828842F0010210
:102E3000828004E082884FF6FE731A4082807047D9
:102E40001AB183890B43838102E083898B43838199
:102E500070478182704702460020138A0B400BB1F5
:102E6000012000E000207047CA430282704730B55D
:102E70000246002000230024158A05EA01039589F3
:102E800005EA010413B10CB1012000E0002030BDBF
:102E9000CA430282704741EA0203A0F848307047F3
:102EA0001AB183890B43838102E083898B43838139
:102EB000704721B1828842F00802828004E0828853
:102EC0004FF6F7731A408280704701894FF6F87207
:102ED0001140018170470A46002101894FF68F7326
:102EE000194011430181704730B504460D4629460B
:102EF0002046FFF7F0FF208940F00700208130BD19
:102F00002DE9F04104460D4616461F46602D06D1B8
:102F10003B46012231462046FFF775FE05E03B4661
:102F2000012231462046FFF7A4FE29462046FFF73E
:102F3000D2FF208940F007002081BDE8F08130B544
:102F40000C4600210189C9B24FF6FF7505EA032539
:102F5000154325432943018130BD2DE9F041054644
:102F60000E4617469846002443463A4631462846C0
:102F7000FFF7E5FF2C894FF6F870044044F0070492
:102F80004FF68F70044044F070042C81BDE8F0814E
:102F9000F0B504460D4616461F463B4632462946C6
:102FA0002046FFF7CCFF208940F480402081F0BD0F
:102FB00082884FF68F731A40828082880A4382800B
:102FC000704702894FF6F8731A40028102890A435A
:102FD0000281704702894FF67F731A40028102898D
:102FE0000A4302817047F0B50C4615461E46002183
:102FF000002200230189028B038C4FF6F8773940B9
:1030000021434FF6FC473A4040F201173A434FF64E
:10301000DD773B404FF6FF7707EA06172F433B4328
:10302000018102830384F0BD21B1828842F08002D5
:10303000828004E082884FF67F731A408280704756
:10304000A0F850107047000030B503460C46D3F886
:103050000C02007860B9002106E00020D3F810527D
:1030600045F82100481CC1B293F809028842F4DCFB
:10307000002030BD10B50446AFF23303002241F208
:103080000301204600F004FD0020D4F80C12087063
:1030900010BD7047FEB504460D4617461E46D4F8CF
:1030A0001802008880B2ADF8000000208DF8020000
:1030B00008208DF80300E8B28DF80400290A8DF885
:1030C00005108DF806702EB90021CDF807108DF887
:1030D0000B1005E03168CDF8071031798DF80B1031
:1030E0006946D4F8E401FDF7D7FAFEBD2DE9F047B3
:1030F00004460E4690469946002517E004F50770F1
:1031000030F82500B0420FD104F5077000EB8500C0
:10311000C07810B10020BDE8F087012104F50770E8
:1031200000EB8500C17003E0681CC5B2082DE5DB2B
:1031300000BF082D0DD1002508E004F5077000EB55
:103140008500C07800B903E0681CC5B2082DF4DB27
:1031500000BF082D01D10120DDE704F5077020F83C
:10316000256000EB850080F80280012104F50770DE
:1031700000EB8500C170012084F8080200250027BB
:103180000EE004F5077000EB8500C078012805D13A
:1031900004F5077000EB850080780743681CC5B212
:1031A000082DEEDBD4F81402077094F80902401ED3
:1031B000C5B20BE0D4F8100200EB850050F8040C07
:1031C000D4F8101241F82500681EC5B2002DF1DCBC
:1031D00046EA0940D4F810120860D4F80C020078CE
:1031E00094F80912884206DAD4F80C020078401CE0
:1031F000D4F80C1208707F20005D40B1D4F814029E
:103200000278002331462046FFF744FF83E7012080
:1032100081E72DE9F04105460F464FF000080024F4
:1032200008E005F5077030F82400B84200D103E04B
:10323000601CC4B2082CF4DB00BF082C33D005F5A9
:10324000077000EB8400C07801282CD1002105F51F
:10325000077000EB8400C170002400260FE005F524
:10326000077000EB8400C078012806D1804605F580
:10327000077000EB840080780643601CC4B2082C01
:10328000EDDBB8F1000F0BD1002085F808027F209C
:10329000405D28B100231A4619462846FFF7FAFE7A
:1032A000D5F814020670BDE8F0812DE9F843054613
:1032B0000C46E078082801D0BDE8F883207800F0BB
:1032C0007F062179607941EA002794F80680E01DA5
:1032D000009043463A4631462846D5F83CC2E0477E
:1032E00000BFE9E710B5029C10BD000002460F20A8
:1032F000802902DA02F1B403585C704770B50446C5
:103300000D46D4F8A00050F82500C0F307464FF052
:10331000FF30D4F8A41021F81500012104F1B40005
:10332000815531462046D4F8B020904770BD2DE934
:10333000FE4F04460F46387800F07F05B878012824
:1033400029D120680078A8427AD12068007800F559
:10335000E066ADF8006001208DF8030000208DF8D4
:10336000020094F87C008DF8040094F8E00148B164
:103370009DF8040040F080008DF80400002084F8DF
:10338000E00102E0012084F8E0016946D4F8E4019C
:10339000FDF782F954E0387900F07F08D4F8400155
:1033A000017804F5A27041559038405D404509D040
:1033B000424629462046D4F8DC31984704F1B4004F
:1033C00000F8058004F1B400405D20B9294620468C
:1033D000D4F8D821904704F1B400405D0F282ED0D6
:1033E000002626E0D4F8A00050F82600C0F30749D4
:1033F0004D451CD1D4F8A00030F826001FFA80FA01
:10340000D4F8A41031F9160004F029FF0020009030
:103410004FF47A700AFB00F3AFF21F1231462046D8
:1034200004F0C8FED4F8A41021F8160000BF701CE8
:10343000C6B2D4F89C000078B042D3DC00BF00BF15
:10344000BDE8FE8FFEB504460E46D4F8A8000088FD
:10345000A8B12068007800F5E065ADF800500120C3
:103460008DF8030000208DF8020094F87C008DF8A0
:1034700004006946D4F8E401FDF70EF905E0B4F95B
:10348000AC0004F0ECFEA4F8AC00FEBD70B5044640
:103490000E46D4F83C01008860B3002527E004F113
:1034A000B400405D0F2820D020680078A8421CD0CE
:1034B00004F5A270405D00280BDCD4F8380120B17F
:1034C00029462046D4F838219047012104F1B40060
:1034D000415504F5A270405D401EC1B204F5A270D2
:1034E00041552946204600F013F9681CC5B2802DCD
:1034F000D5DB05E0B4F9340104F0B1FEA4F83401E1
:1035000070BDF8B50446764B002241F20C0120460E
:1035100000F0BEFA724B002241F20D01204600F08D
:10352000B7FAD4F83C01008858B3D4F840010078C9
:1035300038B3D4F83C0106884FF47A7106FB01F0E9
:1035400006FB01F3AFF2BB0200210090204604F01D
:1035500031FEA4F83401002510E004F1B400405D10
:103560000F2809D020680078A84205D0D4F840017F
:10357000017804F5A2704155681CC5B2802DECDBC2
:1035800000BFF8BD10B50446B4F9340104F067FE7D
:10359000A4F8340110BD70B504460D461646204609
:1035A000FFF7F0FF2046FFF7ACFF002070BDF8B535
:1035B00004460E461746A834B4F9040004F04FFE42
:1035C000A08054F8A809008888B1D4F8A80005881C
:1035D0004FF47A7105FB01F00023AFF29712194600
:1035E0000090204604F0E6FDA4F8AC0000BF0020E7
:1035F000F8BDF8B50446AFF24903002241F21701C5
:10360000204600F045FA002084F8E001002517E08C
:10361000D4F8A00030F8250086B27EB100200090DA
:103620004FF47A7006FB00F3AFF22F3229462046A2
:1036300004F0C0FDD4F8A41021F81500681CC5B230
:10364000D4F89C000078A842E2DCD4F8A8000088F6
:1036500090B1D4F8A80006884FF47A7106FB01F007
:1036600006FB01F3AFF2232200210090204604F074
:10367000A1FDA4F8AC0000BFF8BD70B5044600255C
:103680000BE0D4F8A41031F9150004F0E8FDD4F8EB
:10369000A41021F81500681CC5B2D4F89C0000786D
:1036A000A842EEDCB4F9AC0004F0D9FDA4F8AC00FB
:1036B00070BD10B504462046FFF79BFF2046FFF77C
:1036C00020FF10BD10B504462046FFF7D6FF204668
:1036D000FFF758FF10BD70477047704770470000F4
:1036E00097350008FEB504460D4616460020ADF895
:1036F00000008DF8020002208DF803008DF80460B0
:103700008DF805506946D4F8E401FCF7C5FFFEBD0D
:10371000FEB504460D4645F4E066ADF800600120B4
:103720008DF8020000208DF803006946D4F8E4010A
:10373000FCF7B2FFFEBD70B504460D460F2104F143
:10374000B40041555DB9002000BF05E00F2204F12F
:10375000B4010A54411CC8B28028F7DB00BF2946D7
:103760002046FFF7D5FF70BD70B504460D4694F8AE
:103770007C007F2807D094F87C00052803D094F8BB
:103780007C0004285FD1687920B1687921680978C4
:10379000884258D12879802824D004DC012807D019
:1037A00002284FD111E0812829D082284AD132E065
:1037B00094F87C007F2803D094F87C00042803D17F
:1037C0000521204604F031FF3CE094F87C007F287E
:1037D00003D094F87C00052803D10421204604F08E
:1037E00024FF2FE094F87C00052803D094F87C0097
:1037F000042803D17F21204604F017FF22E0D4F8EB
:10380000940018B12046D4F894108847002120462F
:1038100004F00BFF16E0204604F06BFF0646D4F8D8
:10382000980018B12046D4F898108847FF202168E6
:1038300008703146204604F060FF0021204604F065
:10384000F4FE00BF00BF70BD3EB504462168097894
:1038500041F4E060ADF8000000208DF80200012086
:103860008DF8030000208DF804006946D4F8E401C7
:10387000FCF712FF3EBD000030B50546039C00205A
:1038800030BD2DE9FC5F81468A4614469846DDE945
:103890000C6B01AA51464846D9F8E83198470546CD
:1038A000019810B10198BDE8FC9F2879A04209DC7D
:1038B000854800231A46214600905046FFF7DCFF5A
:1038C0008148F0E70E9880B1286800EB041000787A
:1038D00000F0010048B17D4800231A4621460090BF
:1038E0005046FFF7C9FF7948DDE7B8F1000F02D174
:1038F0004FF00060D7E7286800EB0410406831689B
:10390000884206D9286800EB04104068306070488F
:10391000C9E7286800EB041040788BF8000028689D
:1039200000EB04104768286800EB04103A468168F1
:10393000404604F0F8FF9BF80000092801D03760EA
:103940000DE0286800EB041040683168884205D219
:10395000002008F80700781C306000E03760002085
:10396000A1E72DE9FF4F83B080468B461546109C9A
:1039700002AA59464046D8F8E831984706460298C8
:1039800018B1029807B0BDE8F08F3079A84209DC81
:103990004D4800900022294658462368FFF76CFFE7
:1039A0004948EFE7119888B1306800EB05100078BE
:1039B00002280BD14548401C009000222946584659
:1039C0002368FFF759FF4148401CDBE7306800EBF4
:1039D000051090F80190306800EB051047683068DA
:1039E00000EB0510D0F80CA0206810B12068B84298
:1039F00043D8D8F824204846069990470290029868
:103A000048B1029800903A46294658462368FFF785
:103A100033FF0298B6E7316801EB05118868226828
:103A2000069904F080FFB9F1090F09D12068B84266
:103A300006D20020316801EB05118968226888549C
:103A40002760BAF1000F08D02A4631464046D047D9
:103A50000290029808B1029894E7306800EB0510D4
:103A6000007800F0040030B12A4659464046D8F8A4
:103A7000EC31984786E7002084E7276015480090DE
:103A80003A46294658462368FFF7F6FE114879E77B
:103A90002DE9F8430546884614461E466A464146C7
:103AA0002846D5F8E83198470746009830B9387964
:103AB000A04203DD386800EB0410C6600098BDE842
:103AC000F883034600207047110009060100010633
:103AD00005000405100007062DE9FF4FDDE90D453F
:103AE0006CE0A5EB020A4FFA8AF3002B04DD91F893
:103AF00000A00AFA03FA05E091F800A0C3F1000B58
:103B00004AFA0BFA0AF0FF0C002B02DDC5F1080A95
:103B100001E0C2F1080A0AF0FF08804501DD824693
:103B200000E0C246564605EB060B4FF0FF0A0AFAC4
:103B30000BFAC5F1080E4FF0FF0B4BFA0EFB4AEAE9
:103B40000B0A0AF0FF072CEA070994F800A00AEA1A
:103B5000070A84F800A094F800A04AEA090A84F849
:103B600000A002EB060A0AF0FF0A5246BAF1070F5C
:103B70000BDD0022DDF80CA0BAF1000F02D04FF0EF
:103B8000FF3A01E04FF0010A514405EB060A0AF042
:103B9000FF0A5546BAF1070F0BDD0025DDF83CA002
:103BA000BAF1000F02D04FF0FF3A01E04FF0010AE6
:103BB0005444A0EB060A0AF0FF0000BF002890DC86
:103BC000BDE8FF8F2DE9F04F8DB0044688461546BD
:103BD00061690989606800EBC10000EBC8000C90C6
:103BE00061694989606800EBC10000EBC80B4FF0C8
:103BF00000090026DBF8000080680B900C98006834
:103C000080690088C0F30A0028800020A87000BFE7
:103C100000200890099009F10100DBF8001001EB89
:103C20000010D0F808A0DAF80000000C07909AF80D
:103C300000707FB3F01940282CD8781E012101EBC9
:103C4000D0000690BAF80000C0F3072005900120CC
:103C500000210AAA06ABCDE90032CDE9021008AB7B
:103C60002046059A0799FFF70CFE18B1FF200DB00A
:103C7000BDE8F08F002206F00700291D01EBD601F8
:103C8000CDE901020091F8B2134608A9FFF724FF1D
:103C90003E4400BF09F1010000F0FF090B980078D5
:103CA0004845B5DC701E012101EBD000E870002012
:103CB000DDE72DE9FE4304460E4660698588A0696C
:103CC000B0F804808220005D10B90020BDE8FE83BA
:103CD000EDB1B6F5A05F1ADBA6F5A050284485B279
:103CE000454513DC606850F835008769388880B234
:103CF000ADF8000001208DF8020000208DF80300CF
:103D00006946D4F8E401FCF7C7FCDFE700BFFF20F9
:103D1000DCE770B504460E46154606EBC601A06802
:103D200000EB4100296840F8061F69684160A968F6
:103D300081602946D4F8E401FCF7AEFC70BD70B593
:103D400005460C464FF0FF3004EBC402A96801EBB6
:103D50004201888004EBC401A86810F8110020F02B
:103D6000010004EBC402A96801F81200E1B2284680
:103D700000F001F870BD2DE9FF4104460D46822098
:103D8000005D38B105EBC501A06810F8110000F026
:103D9000010018B1002004B0BDE8F081606900891D
:103DA000284486B2606850F836008069006800F0E8
:103DB000004008B10020EEE700200190029003903F
:103DC00001AA29462046FFF7FDFE08B10020E2E7E0
:103DD00005EBC501A06800EB4100C088BDF80410E8
:103DE000884217D105EBC501A06800EB4100407A7D
:103DF0009DF8071088420DD105EBC502A16801EBC3
:103E0000420101F10A00082202A904F060FD08B98C
:103E10000020C0E7606850F83600806D0788606851
:103E200050F83600806BB0F80080CFB105EBC502CA
:103E3000A16801EB4201B1F9020004F010FA002080
:103E400000904FF47A7007FB00F3FA4A29462046A7
:103E500004F0B0F905EBC502A16801EB420148800E
:103E6000B8F1000F25D005EBC502A16801EB4201B6
:103E7000B1F9040004F0F3F900200090642008FB7D
:103E800000F3AFF245122946204604F093F905EB02
:103E9000C502A16801EB4201888005EBC501A0685D
:103EA00010F8110040F0010005EBC502A16801F80F
:103EB000120001AA29462046FFF72BFF00BF012070
:103EC00069E770B505460C464FF0FF3004EBC402BD
:103ED000A96801EB42014880002004EBC402A968F4
:103EE00001EB4201C880E1B22846FFF744FF70BDF4
:103EF0002DE9F04F8DB004460F4600200B9082460E
:103F000083460A90022009904FF000080025002007
:103F10000C90B87800287DD160698688A069808877
:103F20000790002E77D0ACE00998022802D0042830
:103F30000CD113E0606850F8360080690A900A9846
:103F400000683988884202D10420099098E0681CF2
:103F5000C5B2701C86B20220099091E06069C688E3
:103F6000A069C0880790606800EBC60050F8350073
:103F700080680B9000200C905CE00020059006907B
:103F8000606800EBC60050F835100C98401C01EB3F
:103F90000010D0F808A0BAF1000F03D1FF200DB037
:103FA000BDE8F08F9AF80090B9F1000F3DD008EB12
:103FB0000900F978B0EBC10F37DC002005AACDE984
:103FC0000020CDE902084FEAE87008EB5070C010FD
:103FD000A8EBC000C2B2381D00EBE8010023484640
:103FE000FFF77AFDA9F10100012101EBE000049047
:103FF0000120002104AACDE900210290BAF80000B6
:10400000C0F30722DAF80000010C05AB2046FFF7E9
:10401000A8FC01E03AE0C0E00890089808B1FF2051
:10402000BDE708EB090000F0FF080C98401CC0B287
:104030000C9000BF0B9801780C9881429DDCE068E1
:10404000E0B1606850F83600806D008806900698F0
:1040500098B1E16831F9150004F001F900200090F1
:104060004FF47A71069800FB01F329462046226935
:1040700004F0A0F8E16821F8150000BF00208EE7E9
:1040800000BF079886427FF74FAF9DE0B8780128C0
:10409000FBD1099060690689A06900890790002E0C
:1040A0007BD08DE00998012804D0042816D005287B
:1040B0000CD175E0606850F8360080690A900A9863
:1040C00000683988884202D10420099077E0681C92
:1040D000C5B2701C86B20120099070E0606850F88B
:1040E0003600D0F828B09BF80000FD2802D105204A
:1040F000099064E09BF80000FC2816D105EBC5018F
:10410000A06810F8110000F0010058B105EBC503DC
:10411000A26802EB4302911DD4F8E401FCF7BCFA5B
:1041200000203CE70520099049E09BF80000FF28AB
:1041300003D09BF80000FE2830D105EBC502A16832
:1041400001EB4201B1F9020004F089F805EBC50268
:10415000A16801EB4201488005EBC502A16801EBB3
:104160004201B1F9040004F07AF805EBC502A16838
:1041700001EB4201888005EBC501A06810F8110031
:1041800020F0010005EBC502A16801F812002946E4
:104190002046FFF796FE002001E715E0FF20FEE62F
:1041A00004AA29462046FFF70DFD08B1FF20F6E6D8
:1041B00004A9D4F8E401FCF76FFA0020EFE600BF91
:1041C000079886427FF76EAF0020E8E62DE9FE4FA4
:1041D00004460F46002500264FF003096069B0F839
:1041E00008806069B0F80AA0A069B0F808B0822021
:1041F000005D10B90020BDE8FE8FB8F1000F75D04A
:104200000020009001900290A8E0B9F1030F06D0C1
:10421000B9F1050F6BD0B9F10B0F6AD18EE0606870
:1042200050F838008069006800F0004020B14FF07D
:104230000B0992E0C33E0008606850F83800866AB7
:104240004FB33078012826DB3078F02823DC05EBEB
:10425000C501A06810F81100401CC0B205EBC502F2
:10426000A16801F812003178884214D1002005EBD2
:10427000C502A16801F812000090019002906A4600
:1042800029462046FFF79EFC10B14FF00B0964E071
:104290004FF0050949E05FB33078FC282AD105EBDF
:1042A000C501A06800EB4100821D29462046FFF7AA
:1042B00089FC60B105EBC501A06810F8110020F081
:1042C000010005EBC502A16801F812000BE005EB47
:1042D000C501A06810F8110040F0010005EBC5020F
:1042E000A16801F812004FF00B0936E03AE01DE03A
:1042F00000E030E00FB1307870B1A7B93078FF2816
:1043000002D03078FE280ED105EBC501A06810F868
:10431000110000F0010030B929462046FFF72BFDBF
:104320004FF00B0901E04FF00B0916E06A462946F1
:104330002046FFF7EEFC4FF00B090EE0681CC5B2FB
:1043400008F101001FFA80F80AF101001FFA80FA53
:104350004FF0030901E0FF204DE700BFD8457FF78C
:1043600054AF00BF002046E710B5044600212046A8
:10437000FFF72CFF10BD70472DE9F04104460E46B3
:1043800017468220005DE0B3022F04D0032F03D034
:10439000052F37D101E000BF00BF6169098960685E
:1043A00000EBC108A6EB0800C0F3C70505EBC5028A
:1043B000A16801EB4201B1F9020003F050FF05EBE7
:1043C000C502A16801EB4201488005EBC502A16866
:1043D00001EB4201B1F9040003F041FF05EBC50216
:1043E000A16801EB42018880002005EBC502A168AD
:1043F00001F8120029462046FFF763FD0020BDE8C2
:10440000F08101E000BF00BF0020F8E72DE9F8438C
:1044100004464FF4C05760690589A069B0F8088068
:10442000C5B115E06A4639462046D4F8E8319847C8
:104430000646009838B9AFF2BF013068C1623068F3
:10444000C1633068C165781C87B2681C85B200BF43
:104450004545E7DD00212046FFF7B8FEBDE8F883BB
:104460002DE9F0410446002560690689A0690789A5
:1044700086B32DE005EBC502A16801EB4201B1F95D
:10448000020003F0ECFE05EBC502A16801EB42015E
:10449000488005EBC502A16801EB4201B1F90400B7
:1044A00003F0DDFE05EBC502A16801EB4201888047
:1044B000002005EBC502A16801F8120005EBC5025A
:1044C000A16801EB4201C880681CC5B2701C86B2AD
:1044D000BE42CFDDBDE8F08110B50A4643691B89B5
:1044E00003B910BD43691B89134499B2436853F85B
:1044F00031309B691B6823F00044436853F8313026
:104500009B691C6000BFECE710B50A4643691B8934
:1045100003B910BD43691B89134499B2436853F82A
:1045200031309B691B6843F00044436853F83130D5
:104530009B691C6000BFECE72DE9F84304460D467B
:1045400017469846DDE90896022E05D0032E03D0C3
:10455000042E01D0052E12D10020FE4BFE4A294622
:104560000090204603F026FEC5EBC50101EB410299
:1045700004F1280101EB8201A1F84C0015E0C5EB24
:10458000C50101EB410204F1280101EB8201B1F9FF
:104590004C0003F064FEC5EBC50101EB410204F1E0
:1045A000280101EB8201A1F84C00C5EBC50000EB2E
:1045B000400104F1280000F82170C5EBC50000EBB4
:1045C000400104F1280000EB8100A0F80880C5EB51
:1045D000C50000EB400104F1280000EB810080F8E9
:1045E0000A90C5EBC50000EB400104F1280000EB88
:1045F000810086700021C5EBC50000EB400204F18C
:10460000280000EB8200C170C5EBC50000EB400242
:1046100004F1280000EB8200C160C5EBC50000EB8F
:10462000400204F1280000EB82000161C5EBC500E7
:1046300000EB400204F1280000EB820080F8341007
:10464000C5EBC50000EB400204F1280000EB82003E
:1046500080F83510C5EBC50000EB400204F12800DE
:1046600000EB820080F83610C5EBC50000EB40027D
:1046700004F1280000EB82008163C5EBC50000EB6C
:10468000400204F1280000EB8200C163C5EBC500C5
:1046900000EB400204F1280000EB820080F840109B
:1046A000C5EBC50000EB400204F1280000EB8200DE
:1046B00080F84110C5EBC50000EB400204F1280072
:1046C00000EB820080F84210C5EBC50000EB400211
:1046D00004F1280000EB820080F84B10C5EBC50008
:1046E00000EB400204F1280000EB8200016500208D
:1046F000BDE8F8837CB504460D46002000900346D3
:104700000246294601902046FFF716FF00260BE0DF
:104710000021C5EBC50000EB400204F1280000EBCE
:10472000820014308155761C202EF1D30021C5EB78
:10473000C50000EB400204F1280000EB820041704C
:10474000C5EBC50000EB400204F1280000EB82003D
:1047500041607CBD2DE9FE430446884616469946D5
:1047600094F87C00052806D094F87C007F2802D0BD
:10477000FF20BDE8FE83B8F1010F13D16069058801
:1047800025B1A819A1690988884201DDFF20F0E759
:10479000A919606850F83100806A008880B2ADF8CD
:1047A000000012E06069458825B1A819A16949880F
:1047B000884201DDFF20DCE7A919606850F831006C
:1047C0008069008880B2ADF8000000208DF80200FA
:1047D00008208DF80300002705E019F8071001A84C
:1047E000C155781CC7B2082FF7DB6946D4F8E4013D
:1047F000FBF752FFBDE72DE9FC4706460F46904602
:104800001D46DDE90A9480208DF80000E8B28DF89D
:104810000100280A8DF802008DF80390E0B28DF8AF
:104820000400200A8DF80500200C8DF80600200EEB
:104830008DF807006B46424639463046FFF78AFF3F
:1048400082465046BDE8FC872DE9FC4104460D46F2
:104850006069468866B1C5EBC50000EB400104F114
:10486000280010F821003044A1694988884201DD00
:10487000BDE8FC81C5EBC50000EB400204F1280057
:1048800010F822003044616851F83000806B0778DE
:104890004FF0FF31C5EBC50000EB400204F12800EA
:1048A00000EB8200A0F84C108521C5EBC50000EBA1
:1048B000400204F1280000EB820081702749C5EB1B
:1048C000C50000EB400204F1280000EB8200807A72
:1048D000CDE90001C5EBC50000EB400C04F1280058
:1048E00000EB8C000389C5EBC50000EB400C04F124
:1048F000280010F82C20C5EBC50000EB400C04F19B
:10490000280000EB8C0041782046FFF774FF134924
:10491000C5EBC50000EB400204F1280000EB82006B
:104920004160C5EBC50000EB400104F1280000EB3D
:104930008100006D58B1C5EBC50000EB400104F1EA
:10494000280000EB81003946026D20469047C5EBF8
:10495000C50005E0C0C62D00494800080000040558
:1049600000EB400104F1280000EB81004068FE49A3
:10497000884203D1E9B22046FFF7BCFE00BF77E7CB
:1049800070B50546002405E021462846FFF7B2FE33
:10499000601CC4B2012CF7DB70BD2DE9FF41044659
:1049A0000D46C5EBC50000EB400104F1280000EB0B
:1049B0008100C06888B9C5EBC50000EB400104F177
:1049C000280000EB81000169C5EBC50000EB400247
:1049D00004F1280000EB8200C160C5EBC50000EBCC
:1049E000400104F1280000EB8100C0680390012021
:1049F00003AACDE900200290C5EBC50000EB4007FB
:104A000004F1280000EB870000F11403C5EBC5009A
:104A100000EB400704F1280000EB8700827AC5EB29
:104A2000C50000EB400704F1280000EB8700018976
:104A30002046FEF796FF06461EB1304604B0BDE89C
:104A4000F0810020FAE7F0B587B004460D4620203B
:104A50000690012005AA06ABCDE901200093039042
:104A6000C5EBC50000EB400704F1280000EB870010
:104A700000F11403C5EBC50000EB400704F128006A
:104A800000EB8700827AC5EBC50000EB400704F11C
:104A9000280000EB870001892046FEF7F2FE06465B
:104AA00016B1304607B0F0BDC5EBC50000EB4002C3
:104AB00004F1280000EB82000699C1600021C5EBDB
:104AC000C50000EB400204F1280000EB8200016108
:104AD0000020E7E7F0B504461D46C1EBC10000EB3E
:104AE000400704F1280000EB8700006910442028EB
:104AF00001D9FF20F0BDC1EBC10000EB400704F17C
:104B0000280000EB870000698718C1EBC10000EBAB
:104B1000400C04F1280000EB8C00C068874201D9EA
:104B2000FF20E7E7C1EBC10000EB400704F12800DC
:104B300000EB8700066900230DE0C1EBC10000EB2C
:104B4000400704F1280000EB87001430F718C05D1F
:104B5000E854581CC3B29342EFD3C1EBC10000EB41
:104B6000400704F1280000EB870000698718C1EBBB
:104B7000C10000EB400C04F1280000EB8C00076141
:104B80000020B7E7F0B504461546C1EBC10000EBC5
:104B9000400704F1280000EB870000692844202822
:104BA00001D9FF20F0BDC1EBC10000EB400704F1CB
:104BB000280000EB8700066900220FE09F5CC1EB34
:104BC000C10000EB400C04F1280000EB8C00143015
:104BD00006EB020C00F80C70501CC2B2AA42EDD3D6
:104BE000C1EBC10000EB400704F1280000EB870097
:104BF00000694719C1EBC10000EB400C04F128002B
:104C000000EB8C0007610020CCE770B504460D4630
:104C100000212FE0C1EBC10000EB400604F12800A9
:104C200000EB8600807818B3C1EBC10000EB4006B2
:104C300004F1280000EB86008078852818D0C1EBAD
:104C4000C10000EB400604F1280010F82600A8423D
:104C50000ED1C1EBC10000EB400604F1280000EBCF
:104C600086004078904203D103B11970002070BDD6
:104C7000481CC1B20129CDDBFF20F8E72DE9FE4F2A
:104C800004460F4615469946DDE90CA802AB2A46B4
:104C900039462046FFF7B9FF064636B9012D04D143
:104CA0009DF808102046FFF725FD9EBB022D31D14F
:104CB0009DF80810C1EBC10101EB410204F128018C
:104CC00001EB8201B1F94C0003F0C9FA9DF808101C
:104CD000C1EBC10101EB410204F1280101EB8201AA
:104CE000A1F84C0085219DF80800C0EBC00000EB46
:104CF000400204F1280000EB820081709DF808005A
:104D0000C0EBC00000EB400104F1280000EB810083
:104D1000C0F804804B463A4629462046CDE900A813
:104D2000FFF769FD064616B1FF20BDE8FE8F0020A3
:104D3000FBE730B503460C46002119E0C1EBC1008A
:104D400000EB400503F1280000EB8500807868B98E
:104D50001170C1EBC10000EB400503F1280000EB2E
:104D600085004470002030BD00000405481CC1B21D
:104D70000129E3DBFF20F6E770B504460D4600216C
:104D800024E0C1EBC10000EB400604F1280000EB79
:104D900086008078C0B1C1EBC10000EB400604F191
:104DA000280010F82600A8420ED1C1EBC10000EB8C
:104DB000400604F1280000EB86004078904203D1C1
:104DC00003B11970002070BD481CC1B20129D8DBA5
:104DD000FF20F8E7F0B502460C46002650694188EE
:104DE0009069478809B9FF20F0BD002314E050689E
:104DF00000EBC1000079032801DCFF20F4E75068D4
:104E000050F83100806B0578A54201D1012605E0FC
:104E1000481C81B2581CC3B2B942E8DD00BF0EB9CC
:104E2000FE20E1E71846DFE72DE9F84306460F4686
:104E3000904639463046FFF7CDFF0546FE2D02DB92
:104E40008520BDE8F8836B46424629463046FFF789
:104E500093FF04460CB1FF20F3E79DF800103046A5
:104E6000FFF748FC0020ECE730B50346C1EBC1007A
:104E700000EB400403F1280000EB8400C06810B987
:104E80000020106013E0C1EBC10000EB400403F10F
:104E9000280000EB8400C468C1EBC10000EB4005B2
:104EA00003F1280000EB85000069201A1060002043
:104EB00030BD10B50346202A01D9FF2010BDC1EB3B
:104EC000C10000EB400403F1280000EB8400C26045
:104ED0000020F3E703B599B000201690149003204A
:104EE00012900020099003201290199840690088C0
:104EF0000890199880690088079000200A90089807
:104F000050B324E019984168089801EBC00000797B
:104F1000012802DCFF201BB000BD199841680898E9
:104F200051F8300081690991099801681A98008840
:104F3000814204D1012012900A9813900BE00A9844
:104F4000401CC0B20A900898401C80B20890DDE96D
:104F500007108842D6DD00BF129803283DD119986A
:104F6000406940880890199880694088079000201F
:104F70000A90089888B32BE019984168089801EBCB
:104F8000C0000079032801DCFF20C4E719984168BC
:104F9000089851F83000816A0991099801681A98B7
:104FA000008881420CD1022012900A98139019981F
:104FB0004168089851F83000806B007814900BE03D
:104FC0000A98401CC0B20A900898401C80B2089011
:104FD000DDE907108842CFDD00BF1298032801D118
:104FE000FF2098E71A98C07808280CD04FF000618D
:104FF00000200346CDE90001DDE912211998FFF7F1
:105000003DFEFF2087E716ABDDE912211998FFF777
:10501000FCFD1890FF201790189828BB12980128C3
:105020000CD19DF85800C0EBC00000EB400119986E
:10503000283000EB8100807804280FD012980228D5
:1050400015D19DF85800C0EBC00000EB4001199845
:10505000283000EB81008078052808D11A98007963
:10506000802802D10420179001E00620179017989D
:10507000FF2803D11A980079401117901798072834
:1050800082F09684DFE810F007006C02D204C606B6
:105090004009AE09B10E129801287CD1189880B948
:1050A0009DF85800C0EBC00000EB40011998283073
:1050B00000EB81008078022801D0012000E0002070
:1050C0001890189858B1FE4900200346CDE9000118
:1050D000DDE912211998FFF7D1FDFF201BE79DF8AC
:1050E0005800C0EBC00000EB40011998283000EBDD
:1050F0008100B0F94C00401C90B39DF85800C0EB03
:10510000C00000EB40011998283000EB8100B0F995
:105110004C00029003F0A3F801469DF85800C0EB44
:10512000C00000EB40021998283000EB8200A0F884
:105130004C100020E34BAFF6EF0200909DF85810A2
:10514000199803F037F801469DF85800C0EBC000ED
:1051500000EB40021998283000EB8200A0F84C10B8
:105160009DF85800C0EBC00000EB400119982830B2
:1051700000EB810000890E909DF85800C0EBC00044
:1051800000EB40011998283000EB8100807A0D90E7
:105190009DF8580000E099E0C0EBC00000EB400132
:1051A0001998283000EB8100C1781A980079C0F373
:1051B000001081420BD0C4490D98CDE900010E9B2F
:1051C000DDE912211998FFF759FDFF20A3E61A988F
:1051D0000079C0F34200C0F1070015901A98431DF2
:1051E0009DF85810159A1998FFF7CCFC189018984C
:1051F00060B14FF000610D98CDE900010E9BDDE933
:1052000012211998FFF73AFDFF2084E69DF8580017
:10521000C0EBC00000EB40011998283000EB810082
:10522000C078202141EA0010C0B28DF83C00012076
:105230000B9006E000210FAA0B9811540B98401C0C
:105240000B900B980828F5D30FABDDE912121998D3
:10525000FFF780FA9DF85800C0EBC00000EB40015A
:105260001998283000EB8100C07808B9012000E0CF
:10527000002000F001019DF85800C0EBC00000EBD9
:1052800040021998283000EB8200C1701A9800790A
:1052900000F00100002818D09DF858101998FFF769
:1052A0007CFB1190119858B111990D98CDE900012E
:1052B0000E9BDDE912211998FFF7E0FCFF202AE69A
:1052C0009DF858101998FFF715FA47E1189880B91A
:1052D0009DF85800C0EBC00000EB40011998283041
:1052E00000EB81008078032801D0012000E000203D
:1052F0001890189858B1724800210B46CDE900105B
:10530000DDE912211998FFF7B9FCFF2003E69DF8AB
:105310005800C0EBC00000EB40011998283000EBAA
:105320008100B0F94C00401C90B39DF85800C0EBD0
:10533000C00000EB40011998283000EB8100B0F963
:105340004C00029002F08BFF01469DF85800C0EB24
:10535000C00000EB40021998283000EB8200A0F852
:105360004C100020574BAFF61F3200909DF858109C
:10537000199802F01FFF01469DF85800C0EBC000CD
:1053800000EB40021998283000EB8200A0F84C1086
:105390009DF85800C0EBC00000EB40011998283080
:1053A00000EB810000890E909DF85800C0EBC00012
:1053B00000EB40011998283000EB8100807A0D90B5
:1053C0009DF85800C0EBC00000EB40011998283050
:1053D00000EB8100C1781A980079C0F30010814277
:1053E0000BD039490D98CDE900010E9BDDE9122162
:1053F0001998FFF743FCFF208DE51A980079C0F358
:105400004200C0F1070015901A98431D9DF85810EE
:10541000159A1998FFF7B6FB1890189860B14FF0DD
:1054200000610D98CDE900010E9BDDE9122119986C
:10543000FFF724FCFF206EE59DF85800C0EBC0008C
:1054400000EB40011998283000EB8100C07808B9C2
:10545000012000E0002000F001019DF85800C0EBA1
:10546000C00000EB40021998283000EB8200C170A8
:105470001A98007900F0010008B39DF85800C0EBBD
:10548000C00000EB40011998283000EB8100B0F912
:105490004C00029002F0E3FE01469DF85800C0EB7C
:1054A000C00000EB40021998283000EB8200A0F801
:1054B0004C1001219DF85800C0EBC00006E029E027
:1054C00021000008C0C62D000000030500EB4002CB
:1054D0001998283000EB820081709DF85800C0EBCD
:1054E000C00000EB40011998283000EB8100006DEE
:1054F000A0B39DF85800C0EBC00000EB4001199824
:10550000283000EB8100006D0290029A14991998DE
:10551000904723E09DF85800C0EBC00000EB40012D
:105520001998283000EB8100C078602141EA001012
:10553000C0B28DF83C0001200B9006E000210FAABC
:105540000B9811540B98401C0B900B980828F5D31E
:105550000FABDDE912121998FFF7FCF802F057BA09
:105560001298012878D11A984179807941EA00206F
:105570000E901A98C0790D90189858B9F8490D985E
:10558000CDE900010E9BDDE912211998FFF776FBAA
:10559000FF20C0E416AA12991998FFF7CAFB1890C9
:1055A000189858B1EE490D98CDE900010E9BDDE940
:1055B00012211998FFF762FBFF20ACE402210D983D
:1055C000CDE900019DF858100E9B139A1998FEF72B
:1055D000B3FF1A980079C0F34000E0B31A9800793D
:1055E000C0F38100C0F1040015909DF85800C0EB95
:1055F000C00000EB40021998283000EB820015999A
:10560000C1601A9800F108039DF85810159A19986E
:10561000FFF7B8FA1890189860B14FF000610D9834
:10562000CDE900010E9BDDE912211998FFF726FB59
:10563000FF2070E49DF858101998FFF7AEF911900B
:10564000119870B111990D98CDE900010E9BDDE91B
:105650001221199801E00AE054E0FFF70FFBFF2048
:1056600059E49DF858101998FFF744F828E01A9863
:10567000007900F0010018B31A98017A407A01EB22
:1056800000211A98807A01EB00411A98C07A01EB48
:10569000006015909DF85810159A1998FFF709FCAD
:1056A0001890189860B14FF000610D98CDE9000195
:1056B0000E9BDDE912211998FFF7E0FAFF202AE49A
:1056C00060208DF83C000E98C0B28DF83D000E9819
:1056D000000A8DF83E000D988DF83F0004200B90D5
:1056E00006E000210FAA0B9811540B98401C0B9058
:1056F0000B980828F5D30FABDDE912121998FFF7C4
:1057000029F892E1189880B99DF85800C0EBC000C4
:1057100000EB40011998283000EB810080780228C6
:1057200001D0012000E000201890189858B18C4852
:1057300000210B46CDE90010DDE912211998FFF791
:105740009DFAFF2021E49DF85800C0EBC00000EB5B
:1057500040011998283000EB8100B0F94C00401C42
:1057600090B39DF85800C0EBC00000EB40011998C1
:10577000283000EB8100B0F94C00029002F06FFD80
:1057800001469DF85800C0EBC00000EB400219989C
:10579000283000EB8200A0F84C100020714BAFF6CF
:1057A000577200909DF85810199802F003FD0146B9
:1057B0009DF85800C0EBC00000EB4002199828305B
:1057C00000EB8200A0F84C109DF85800C0EBC00020
:1057D00000EB40011998283000EB810000890E9001
:1057E0009DF85800C0EBC00000EB4001199828302C
:1057F00000EB8100807A0D909DF85800C0EBC0004E
:1058000000EB40011998283000EB8100C1781A980C
:105810000079C0F3001081420BD053490D98CDE9B7
:1058200000010E9BDDE912211998FFF727FAFF20EE
:1058300054E415AA9DF858101998FFF715FB159810
:10584000F0BB9DF85800C0EBC00000EB4001199878
:10585000283000EB8100B0F94C00029002F0FFFC10
:1058600001469DF85800C0EBC00000EB40021998BB
:10587000283000EB8200A0F84C1001219DF8580060
:10588000C0EBC00000EB40021998283000EB82000A
:1058900081709DF85800C0EBC00000EB40011998E2
:1058A000283000EB8100006D88B19DF85800C0EBF6
:1058B000C00000EB40011998283000EB810000E0A7
:1058C00007E0006D0290029A149919989047002001
:1058D00004E41598072849D99DF85800C0EBC0008A
:1058E00000EB40011998283000EB8100C07808B91E
:1058F000012000E0002000F001019DF85800C0EBFD
:10590000C00000EB40021998283000EB8200C17003
:105910009DF85800C0EBC00000EB400119982830FA
:1059200000EB8100C0780007000E8DF83C000DF1FF
:105930003D0307229DF858101998FFF7CBF81890EF
:105940001898E8B34FF000610D98CDE900010E9B67
:10595000DDE912211998FFF791F9FF2036E40000E4
:1059600021000008C0C62D00000003059DF8580066
:10597000C0EBC00000EB40011998283000EB81001B
:10598000C07808B9012000E0002000F001019DF876
:105990005800C0EBC00000EB40021998283000EB23
:1059A0008200C1709DF85800C0EBC00000EB4001C0
:1059B0001998283000EB8100C0780101159800E0AB
:1059C0002DE0C0F1070041EA4000401CC0B28DF854
:1059D0003C000DF13D039DF85810159A1998FFF7FA
:1059E00079F81890189860B14FF000610D98CDE9E2
:1059F00000010E9BDDE912211998FFF73FF9FF2006
:105A00005DE41598401C0B9006E000210FAA0B984E
:105A100011540B98401C0B900B980828F5D30FAB32
:105A2000DDE912121998FEF795FE97E51298012804
:105A300077D11A984179807941EA00200E901A981E
:105A4000C0790D90189858B9FC490D98CDE900011E
:105A50000E9BDDE912211998FFF710F9FF202EE4C3
:105A600016AA12991998FFF764F91890189858B166
:105A7000F2490D98CDE900010E9BDDE9122119983C
:105A8000FFF7FCF8FF201AE403220D99CDE900127C
:105A90009DF858100E9B139A1998FEF74DFD9DF82E
:105AA00058101998FEF7CFFF1190119858B111991D
:105AB0000D98CDE900010E9BDDE912211998FFF741
:105AC000DDF8FF2022E415AA9DF858101998FFF779
:105AD000CBF91598042825D941208DF83C000E9863
